S0110000534C4156455F5350492E737265634D
S11300000C942A000C9434000C9434000C943400A6
S11300100C9434000C9434000C9434000C9434008C
S11300200C9434000C9434000C9434000C9434007C
S11300300C9434000C9434000C9434000C9434006C
S11300400C9434000C9434000C9434000C9434005C
S11300500C94340011241FBECFE5D4E0DEBFCDBF25
S11300600E943D000C944E000C9400006E9ABE9ABF
S11300700895779BFECF8FB1089584B3816284BBCA
S11300800E9436000E943900893519F4A89AAD9867
S1130090F9CF8734B9F7AD9AA898F4CFF894FFCF85
S9030000FC
