S00D000055415254322E73726563A9
S11300000C942A000C9434000C9434000C943400A6
S11300100C9434000C9434000C9434000C9434008C
S11300200C9434000C9434000C9434000C9434007C
S11300300C9434000C9434000C9434000C9434006C
S11300400C9434000C9434000C9434000C9434005C
S11300500C94340011241FBECFE5D4E0DEBFCDBF25
S11300600E9443000C9456000C94000087E689B962
S113007010BC88E18AB980B5866080BD08955F9B15
S1130080FECF8CB1089584B3816284BB80E895E28D
S11300900E9436000E943F00893519F4A89AAD9851
S11300A0F9CF8734B9F7AD9AA898F4CFF894FFCF75
S9030000FC
