S01200005350495F4D41535445522E73726563FB
S11300000C942A000C9434000C9434000C943400A6
S11300100C9434000C9434000C9434000C9434008C
S11300200C9434000C9434000C9434000C9434007C
S11300300C9434000C9434000C9434000C9434006C
S11300400C9434000C9434000C9434000C9434005C
S11300500C94340011241FBECFE5D4E0DEBFCDBF25
S11300600E9441000C9467000C9400008DB18165DE
S11300708DB987B3806A87BB08958FB9779BFECF0C
S1130080089584B3867F84BB85B3896085BB0E9451
S1130090360098990DC089E50E943D002FEF85EA4E
S11300A09EE0215080409040E1F700C00000F1CF75
S11300B09B99EFCF87E40E943D002FEF85EA9EE0F5
S11300C0215080409040E1F700C00000E2CFF89456
S10500D0FFCF5C
S9030000FC
