:100000000C942A000C943F000C943F000C943F0089
:100010000C943F000C943F000C943F000C943F0064
:100020000C943F000C943F000C943F000C943F0054
:100030000C943F000C943F000C943F000C943F0044
:100040000C943F000C943F000C943F000C943F0034
:100050000C943F0011241FBECFE5D4E0DEBFCDBF1E
:1000600010E0A0E6B0E0EAE9F1E002C005900D92F0
:10007000A437B107D9F70E9485000C94CB000C94EB
:100080000000442319F0611115C00895662319F189
:10009000FC01860F911D21912BBB2FE73AE146E031
:1000A000215030404040E1F700C000008E179F070C
:1000B00091F70895FC01860F911D219128BB2FE730
:1000C0003AE146E0215030404040E1F700C00000F6
:1000D000E817F90791F708954423B1F0FC01A62F22
:1000E000B72F9C01240F311D91919BBB9D9198BB13
:1000F0004FE78AE196E0415080409040E1F700C030
:100100000000E217F30781F70895CF93DF93CDB78F
:10011000DEB764970FB6F894DEBF0FBECDBF8FE792
:100120008ABB87BB14BA83E085BB8AE0E0E6F0E0D7
:10013000DE01119601900D928A95E1F78AE0EAE6D8
:10014000F0E0DE011B9601900D928A95E1F716E72B
:1001500083B3823039F440E06AE0CE0101960E9418
:100160004100F6CF83B3813039F441E06AE0CE013B
:100170000B960E944100ECCF83B3811109C04AE085
:10018000BE01655F7F4FCE0101960E946C00E0CFFB
:0A0190001BBB18BBDDCFF894FFCFB6
:10019A003F065B4F666D7D077F6F796D6D773740E0
:0401AA00664F5B3F02
:00000001FF
