:100000000C942A000C9434000C9434000C943400AA
:100010000C9434000C9434000C9434000C94340090
:100020000C9434000C9434000C9434000C94340080
:100030000C9434000C9434000C9434000C94340070
:100040000C9434000C9434000C9434000C94340060
:100050000C94340011241FBECFE5D4E0DEBFCDBF29
:100060000E9443000C946B000C94000087E689B951
:1000700010BC88E18AB980B5866080BD08955D9B1B
:10008000FECF8CB9089580E895E20E94360084B3D3
:10009000867F84BB85B3896085BB98990DC089E54F
:1000A0000E943F002FEF85EA9EE021508040904063
:1000B000E1F700C00000F1CF9B99EFCF87E40E94E9
:1000C0003F002FEF85EA9EE0215080409040E1F70D
:0A00D00000C00000E2CFF894FFCF5B
:00000001FF
