S0120000496E74657272757074732E73726563D2
S11300000C942A000C9450000C9462000C9434005C
S11300100C9434000C9434000C9434000C9434008C
S11300200C9434000C9434000C9434000C9434007C
S11300300C9434000C9434000C9434000C9434006C
S11300400C9434000C9434000C9434000C9434005C
S11300500C94340011241FBECFE5D4E0DEBFCDBF25
S11300600E9436000C9474000C940000D09A87B35C
S1130070816187BB8A9882B38C6082BB85B78860B4
S113008085BF8BB7806C8BBF789491E08BB3892745
S11300908BBBE7EAF1E63197F1F700C00000F6CF39
S11300A01F920F920FB60F9211248F939F9398B3C0
S11300B081E0892788BB9F918F910F900FBE0F908D
S11300C01F9018951F920F920FB60F9211248F93C1
S11300D09F9398B380E1892788BB9F918F910F905C
S10F00E00FBE0F901F901895F894FFCFEE
S9030000FC
