:100000000C942A000C9434000C9434000C943400AA
:100010000C9434000C9434000C9434000C94340090
:100020000C9434000C9434000C9434000C94340080
:100030000C9434000C9434000C9434000C94340070
:100040000C9434000C9434000C9434000C94340060
:100050000C94340011241FBECFE5D4E0DEBFCDBF29
:100060000E9436000C944D000C940000CF93DF9357
:100070001F92CDB7DEB719821ABA8FEF84BB86B153
:10008000836086B9379A389A3D9A369A3699FECF68
:0E00900085B18983898185BBF8CFF894FFCFB5
:00000001FF
